:040000000A164D2D62
:08000800FF00030E8312031335
:10001000D0000A0ED100040ED2008A110A16752DE6
:100020000130E707E70CFF30E70500000000E70BB1
:1000300015280800F608031D1E28080004300000DB
:10004000FF3E031D1F2800000000F60B1E280800BD
:10005000E108031D2C280800F93000000000000012
:10006000000000000000FF3E031D2D2800000000DE
:1000700000000000000000000000E10B2C28080038
:10008000FA30E1002820FA30E1002820FA30E100BF
:100090002820FA30E1002820E00B40280800B408AE
:1000A000031D5528B508031908002030340235080F
:1000B00003187328031D732829123408B60083120D
:1000C000281C64288316291603108312AB0CAA0C73
:1000D000A90CA80C8316B603031D5F28291E08006F
:1000E0008312281408008312280829042A042B04E8
:1000F000FF39031908000130A800A901AA01AB01CA
:10010000080083160313B6014030B7008312D808E5
:10011000031D8D2801308316B6008316B608031D13
:10012000AC2883125808033A031D99288316B70197
:10013000AC287F308316B7008312DE080319A72886
:100140005808023A031DAC288316B701AC2858039F
:10015000031DAC288316B70183122C088316BA003E
:1001600083122D088316BB0083122E088316BC0051
:1001700083122F088316BD003708BE00BF01C001DF
:10018000C101B71FC628BF03C003C1033E08BA0799
:100190003F0803183F0FBB0740080318400FBC0778
:1001A00041080318410FBD077F3083122C058316C9
:1001B000B800003083125402031DE028FD305302C2
:1001C000031C8F295308FD3C54080318031DD41B3E
:1001D000EA28F328FD30530603195408031D0E299D
:1001E0008316BD1F0E2928308312D9048316B70841
:1001F000031D05297F308312AE00FF30AC00AD0037
:10020000AF01FE30D300D4010800FF308312D300C9
:10021000D401AC01AD01AE01AF0108008312D41FBF
:100220008F298316BF0183125703031D19298316D3
:10023000BF0A8316BE0183125408803A8316C30096
:100240007F304302031D2729FF3083125302031816
:100250002B298316BE0A8316C201BE080319BF08E4
:10026000031DC20A80303D05C000C101C10AC0089B
:10027000031D4110B901C1080319C208031DB90AC1
:100280008312D3080319D40803198029530983164C
:10029000BE00831254098316BF00BE0A0319BF0AA9
:1002A00020303E023F080318572903195929BF1F60
:1002B00073294010831253098316C100C10A8312A7
:1002C0002C1C64298316401403108312AF0CAE0C4F
:1002D000AD0CAC0C8316C103031D5F29401C8029A3
:1002E00083122C14802983122C082D042E042F0431
:1002F000FF39031980290130AC00AD01AE01AF0117
:100300008312D301D4017F302C058316B800B908BD
:1003100003198F29B80803198F29831259168316D8
:10032000B808031995298312D91683163708BE0019
:10033000BF01C001C101B71FA029BF03C003C10392
:100340003E088312AC0783163F08031CAA293F0FFF
:10035000AA29AC298312AD0783164008031CB329D0
:10036000400FB329B5298312AE0783164108031C39
:10037000BC29410FBC29BE298312AF070730831661
:10038000BE00BE080319CD2903108312AF0CAE0CBA
:10039000AD0CAC0C8316BE03C12940303806031DDA
:1003A000D629B6080319D62983122C1083122C08DB
:1003B0002D042E042F04FF39031D0800D301D4019E
:1003C0000800831203132F1CE9290230D3070318F6
:1003D000D40AAE1FEF29D30A031DEF29D40A53080C
:1003E000AF000310AF0CAE135318AE17DE08031D99
:1003F000AF170800403083160313AE00B601B701F3
:10040000B801B9018312AC01AD01AE01AF01831691
:100410002E08AF00AE03AF080319692A0310831238
:10042000AC0DAD0DAE0DAF0D8316B91F192A831299
:100430002C1403108316B60DB70DB80DB90D831229
:10044000AB1F602A24088316B60783122508031CF5
:100450002C2A250F2C2A2E2A8316B707831226084A
:10046000031C352A260F352A372A8316B80783122C
:100470002708031C3E2A270F3E2A402A8316B90765
:100480008312270883163902031D562A8312260871
:1004900083163802031D562A831225088316370255
:1004A000031D562A83122408831636020318602A75
:1004B0008312AC0A0319AD0A0319AE0A0319AF0A75
:1004C0008312AF1B692A0310A80DA90DAA0DAB0D4D
:1004D000072A8312D401203083162E028312D30000
:1004E000031CD4038316AE1F772A8312D40383160A
:1004F0003608370438043904FF3903190800831219
:100500002C140800831203132408AC002508AD0046
:100510002608AE002708AF005D085C060319C32A51
:100520002808003C8316B4000030B500B600B700C0
:100530008312290803189F2A290F9F2AA12A8316AC
:10054000B50283122A080318A82A2A0FA82AAA2A61
:100550008316B60283122B080318B12A2B0FB12A77
:10056000B32A8316B702831634088312A8008316B1
:1005700035088312A900831636088312AA00831651
:1005800037088312AB002808AC0729080318290F85
:10059000AD072A0803182A0FAE072B0803182B0FE4
:1005A000AF07DF012C082D042E042F04FF39031D93
:1005B00008000130DF000800AB01AE01AF012708E1
:1005C000AC002808AD002B1A0800291CED2A2C08C5
:1005D000AE072D0803182D0FAF070310AA0CA90CA6
:1005E0000310AC0DAD0DAB0AE32A83120313E60131
:1005F0004B3066020318080064000A30E700102040
:10060000E60AF82A831203132C082D042E042F0463
:10061000FF390319172B2F1B08000310AC0DAD0D6C
:10062000AE0DAF0DD3080319D403D3030B2BD301A5
:10063000D401080020088312A40083162108831225
:10064000A500831622088312A600A613A70183160D
:1006500023088312DA00DA130310DA0D8316A21FBF
:10066000332B83125A14831624088312A80083168E
:1006700025088312A900831626088312AA00AA134C
:10068000AB01831627088312DB00DB130310DB0D9D
:100690008316A61F4D2B83125B148312DC01831675
:1006A000A31F552B01308312DC008312DD0183165A
:1006B000A71F5D2B01308312DD0083125D085C06ED
:1006C000DE008316281083125A0A031D692B831635
:1006D00028148316A81083125B0A031D712B83163E
:1006E000A81483162811831224082504260427043D
:1006F000FF39031D7D2B831628158316A81183123D
:10070000280829042A042B04FF39031D892B83168A
:10071000A815831628188E2BA81CDF2B281C972BB6
:100720002819972B221B972B83125914D02BA81C06
:10073000A02BA819A02B261BA02B83125914D02B59
:10074000281CA42B281DD02BA81CA82BA81DD02BFF
:10075000A81DB02B8312DB08031DB02B5914D02B1E
:100760008316281DB92B8312DA08031DB92B5914DF
:10077000D02B8316AE01AF017F30B1008030B000C6
:100780008312DE080319C62B8316B11783163108AE
:10079000B5003008B4002F08B3002E08B2000800DE
:1007A0008316AE01AF01C030B000FF30B100310898
:1007B000B5003008B4000030B300B20008007F304C
:1007C000A9008312DA08031D082C8316281DFC2BB0
:1007D000AE01AF01B101B0018312DE080319F22BA3
:1007E0008316B11783163108B5003008B4002F08FE
:1007F000B3002E08B2000800A9038312A61B092C1F
:100800000310A40DA50DA60DA70D8316A90AFD2B97
:10081000A617DB08031D2F2C8316A81D232CAE0161
:10082000AF01B101B0018312DE080319192C831640
:10083000B11783163108B5003008B4002F08B30093
:100840002E08B2000800A9038312AA1B302C031043
:10085000A80DA90DAA0DAB0D8316A90A242CAA1761
:1008600007308316AE00AE0803193F2C0310831225
:10087000A40DA50DA60DA70D8316AE03332C0830CD
:10088000AE00AE0803194D2C03108312A80DA90D5C
:10089000AA0DAB0D8316AE03412CFA218312D308A7
:1008A0000319D40803198E2C53098316AE00831242
:1008B00054098316AF00AE0A0319AF0A20302E0286
:1008C0002F080318652C0319672CAF1F812C2812E1
:1008D000831253098316B000B00A83122C1C722CA9
:1008E0008316281603108312AF0CAE0CAD0CAC0CA3
:1008F0008316B003031D6D2C281E8E2C83122C141E
:100900008E2C83122C082D042E042F04FF3903197A
:100910008E2C0130AC00AD01AE01AF0183125A083C
:10092000D300D4015B08D3070318D40A831629081F
:100930008312D302031CD4032F1BA72C0310AC0D6E
:10094000AD0DAE0DAF0DD3080319D403D303812031
:10095000E1212C088316AA0083122D088316AB0010
:1009600083122E088316AC0083122F088316AD0065
:100970002D08B5002C08B4002B08B3002A08B200DB
:10098000080020088312AC00831621088312AD00F2
:10099000831622088312AE00831623088312AF0049
:1009A0002C08003C031DE62C2D08003C031DE62C02
:1009B0002E08003C031DE62C2F08803C031DE62C6E
:1009C0000130DE009E30D300D401232DDE01AF1FA5
:1009D0001E2D0130DE002C08003C8316A8000030DC
:1009E000A900AA00AB0083122D080318FA2C2D0FC2
:1009F000FA2CFC2C8316A90283122E080318032D4F
:100A00002E0F032D052D8316AA0283122F0803181B
:100A10000C2D2F0F0C2D0E2D8316AB0283162808DC
:100A20008312AC00831629088312AD0083162A08AE
:100A30008312AE0083162B088312AF009C30D300C4
:100A4000D40102238120E1212C088316A400831203
:100A50002D088316A50083122E088316A600831284
:100A60002F088316A7002708AB002608AA00250830
:100A7000A9002408A8000800A8080319412D803007
:100A8000A70623088312DA00DA130310DA0D83169F
:100A9000A21F4C2D83125A148312DC018316A31F4C
:100AA000542D01308312DC00831620088312A40029
:100AB000831621088312A500831622088312A6003C
:100AC000A613A701831627088312DB00DB1303108C
:100AD000DB0D8316A61F6E2D83125B148312DD01BE
:100AE0008316A71F762D01308312DD00831624089C
:100AF0008312A800831625088312A90083162608EE
:100B00008312AA00AA13AB0106308316B000B00806
:100B10000319932D03108312A40DA50DA60DA70D87
:100B20008316B003872D0630B000B0080319A12D3D
:100B300003108312A80DA90DAA0DAB0D8316B003E7
:100B4000952D291083125A0A031DA82D83162914E6
:100B50008316A91083125B0A031DB02D8316A914F6
:100B60008316291183122408250426042704FF393B
:100B7000031DBC2D831629158316A911831228087D
:100B800029042A042B04FF39031DC82D8316A91537
:100B900083162918CD2DA91C362E2916261FD12DD6
:100BA0002912A916221BA912291CF82DA91CF82DFF
:100BB000291DE62DA91DE62D83125D085C0603198B
:100BC000212E5914DC08031D1F2E2B2E291DEF2D5D
:100BD000A919EF2D291E2B2E831259142B2E2919FA
:100BE000F82DA91DF82DA91E1F2E831259141F2E92
:100BF000291CFE2D291DFE2DA91C212EA91C042E09
:100C0000A91D042E291C2D2E291C162E2919162E3D
:100C1000A91E0C2E831259148316A91C1F2EA91964
:100C20001F2E291E1F2E831259141F2EA91C1F2E82
:100C3000A9191F2E291E2B2E831259142B2E831611
:100C4000221783162308B3002208B2002108B1003E
:100C50002008B0000800831626172708B3002608CE
:100C6000B2002508B1002408B000080083125A0819
:100C70008316AA00AB0183125B088316B400B5018A
:100C80003408AA02350A03183508AB0283125B0840
:100C90005A02031C5F2E5A085B06031D8A2E2B087E
:100CA0002702031D5D2E2A082602031D5D2E29083A
:100CB0002502031D5D2E2808240203188A2E27080A
:100CC000AF002608AE002508AD002408AC005A0885
:100CD000D300D4015C08DE002B08A7002A08A60078
:100CE0002908A5002808A4002F08AB002E08AA0098
:100CF0002D08A9002C08A8005B08DA005308DB00C7
:100D00005D08DC005E08DD008316AA09AB09AA0AAB
:100D10000319AB0A8312DA08031DB62EDB08031D84
:100D2000B62E8222DF080319A12E5D085C06031986
:100D3000A12E5803031D9F2E0130DE00A32EDE01DD
:100D4000A32E5C08DE0006308316B400B408031935
:100D5000B22E03108312AF0CAE0CAD0CAC0C83168C
:100D6000B403A62E8312D301D401F02EDB08031D99
:100D7000C02E8316AA08031DBE2EAB03AA03C12EE4
:100D8000AB168312DA08031DCB2E8316AA0A031DA5
:100D9000CC2EAB0ACC2EA71683162A08B4002B083B
:100DA000B5004F208222DF080319DE2E5803031DF1
:100DB000DC2E0130DE00E02EDE01E02E5C08DE00DD
:100DC0005A08D300D4012F1BEE2E0310AC0DAD0D2D
:100DD000AE0DAF0DD3080319D403D3030223812032
:100DE000E1212C088316AC0083122D088316AD0078
:100DF00083122E088316AE0083122F088316AF00CD
:100E00002F08B3002E08B2002D08B1002C08B00046
:100E10000800AF01B001B201B301B101311A0800FD
:100E20000310B20DB30DA90DAA0DAF0DB00D2C0816
:100E30003002031D1D2F2B082F02031C262F2B0809
:100E4000AF022C08031CB003B0023214B10A0E2FFB
:100E5000E401E5016508803AE6006308803A66022D
:100E6000031D342F6208640203180800F522E40A07
:100E70000319E50A2A2FA301A401A501A6018313E2
:100E800021188317200884000030840700082D3AB9
:100E9000031D4D2F0130A300A400220824020318D3
:100EA000802F8313211883172008240784003030F3
:100EB0000002031C802F83132118831720082407A6
:100EC00084000008393C031C802F2508A700260851
:100ED000A8000A30A900AA01DC222E08A5002F08CC
:100EE000A6008313211883172008240784003030BC
:100EF0000002A507A6080318A60A240AA4004D2F7D
:100F0000A30803198B2F2508003CA700A609031886
:100F1000A60A2708A5002508A7002608A80008009B
:100F2000EA01EB01EC01ED01EE010230EF00F0010E
:100F3000F1010830F200FF30EE00EF01FF306806EB
:100F400003196908031DA62F0130F0001816F108D7
:100F5000031DC92FF008031DC02FE808031DB62F7D
:100F6000E908031DB62F0130F100C02F6A03EA0023
:100F7000EA08031DC02F0130E802E908031CE90359
:100F800020300C05EC00EC080319A72F0230F1000B
:100F9000A72F7108023A031DE42F04301805EC0056
:100FA000EC080319D62F1A08ED00E42F02301805BB
:100FB000EC00EC080319DF2F18121816E42FEE01CD
:100FC000EF011A08EE04EF086E08F3006F08F40052
:100FD00008008312031306108610061186110612EC
:100FE0008612730E0F39F5000F30F50575180614CB
:100FF000F518861475190615F5198615F408031DDC
:1010000006160A30F6001A2086160A30F6001A2054
:1010100086120F307305F5000A30F6001A2006100C
:101020008610061186110612861275180614F51818
:10103000861475190615F5198615F408031D06168C
:101040000A30F6001A2086160A30F6001A20861298
:101050000A30F6001A2008000530831603139F009B
:101060000508F000023005048500C93083129F0096
:10107000F1012830710203183F28F10A39280430A1
:101080001F049F001F19422870088316850007302F
:101090009F0083129F0108000530831603139F00F1
:1010A0000508F000013005048500C13083129F005F
:1010B000F1012830710203185F28F10A5928043021
:1010C0001F049F001F1962287008831685000730CF
:1010D0009F0083129F01080020088312A40083163A
:1010E00021088312A500831622088312A600A613E6
:1010F000A701831623088312DA00DA130310DA0D2E
:101100008316A21F852883125A148312DC018316CA
:10111000A31F8D2801308312DC008316A5019630B1
:1011200083125A028316A400031CA5038030831285
:101130005A028316A6002608153C03183429A61B5C
:10114000342926081D3C0318DA28A61BDA282008B3
:10115000003C031DB7282108003C031DB7282208C6
:10116000003C031DB7282308CF3C0319D328831262
:101170005914DC080319CB28831626087F3AA61BCE
:10118000D328031DD328831224082504260427040A
:10119000FF390319D3287F308316AE00FF30AB0030
:1011A000AC00AD0008008316AB01AC01AD0180308E
:1011B000AE0008001630A6028312A6178316260872
:1011C000AF00AF080319ED2803108312A40DA50D7D
:1011D000A60DA70D8316AF03E1288312DC080319BF
:1011E00024292408003C8316AF000030B000B10071
:1011F000B2008312250803180029250F00290229AF
:101200008316B0028312260803180929260F09291C
:101210000B298316B1028312270803181229270FFE
:10122000122914298316B20283162F088312A400F0
:10123000831630088312A500831631088312A60096
:10124000831632088312A70024088316AB0083128A
:1012500025088316AC00831226088316AD0083127E
:1012600027088316AE0008007E3083125A02031846
:101270005529DA0803193D294429240825042604A0
:101280002704FF3903194B2901308316AF00B00141
:10129000B101B20150298316AF01B001B101B20111
:1012A000A701A801A901AA019329A617240883165A
:1012B000AF00831225088316B00083122608831618
:1012C000B100831227088316B2001F302405B30033
:1012D000B308031972290310AF0DB00DB10DB20D93
:1012E000B3036829831224088316A70083122508F4
:1012F0008316A800831226088316A90083122708E4
:101300008316AA00A409A509A40A0319A50A24089A
:10131000B300B308031993292A0DAA0CA90CA80C31
:10132000A70CB30389292F08300431043204FF3994
:1013300003199C298312D9168312D808031DE129A9
:101340008316B21FC029A70A0319A80A0319A90AFC
:101350000319AA0A2F08B3003008B4003108B500F9
:101360003208B6000310B30DB40DB50DB60D330839
:10137000340435043604FF39031DC029FE30A705A7
:101380008312DC080319282A83162708003CB300BF
:101390000030B400B500B6002808031C280FB402C2
:1013A0002908031C290FB5022A08031C2A0FB602BC
:1013B0003308A7003408A8003508A9003608AA0099
:1013C000282A8316B3012F08300431043204FF3970
:1013D000031D33148312DC080319192A5803031D53
:1013E000FC298316B3080319FC29A70A0319A80AC4
:1013F0000319A90A0319AA0A83162708003CB40096
:101400000030B500B600B7002808031C280FB5024D
:101410002908031C290FB6022A08031C2A0FB70249
:101420003408A7003508A8003608A9003708AA0024
:10143000282A5808023A031D282A8316B3080319DC
:10144000282AA70A0319A80A0319A90A0319AA0A2C
:1014500083162708AB002808AC002908AD002A082D
:10146000AE0008002308C1002208C0002108BF0008
:101470002008BE004108C2000310C20DC01B421468
:101480004208AA00AB01FF302A0603192B08031DEE
:10149000622A2308C1002208C0002108BF002008DA
:1014A000BE00C013C1013E08AC003F08AD004008BB
:1014B000AE000030AF002C082D042E042F04FF399D
:1014C000031D922A2708C1002608C0002508BF0076
:1014D0002408BE004108C2000310C20DC01B421404
:1014E0004208B000B101FF30300603193108031D76
:1014F000972A2708C1002608C0002508BF00240835
:10150000BE00C013C1013E08B2003F08B30040084E
:10151000B4000030B5003208330434043504FF3918
:101520000319972A831259148316BE010800230851
:10153000C2002208C1002108C0002008BF0080307E
:101540004205C300A801C308031D28142708C200D0
:101550002608C1002508C0002408BF0080304205CD
:10156000C300A901C308031D29142908280603196B
:10157000E12A24082004B60025082104B700260823
:101580002204B80027082304B9000310B60DB70DD4
:10159000B80DB90DBA01BA0AB608031D3A10B7085A
:1015A000031D3A10B808031D3A10B908031D3A107C
:1015B000BF01BA080319A808031DBF0A3F08BE00EF
:1015C0000800BD01BD0A24082002031DBD01250835
:1015D0002102031DBD0126082202031DBD012708AB
:1015E0002302031DBD01BB0127082302031D022B9B
:1015F00026082202031D022B25082102031D022BAF
:1016000024082002031CBB0A3B082806BC00BF01BB
:10161000BC080319BD08031DBF0A3F08BE0008002F
:10162000A801A11F232B83132318831722088400EA
:101630002D308000A80A2008003CA900A109031849
:10164000A10A2908A0002008A6002108A700273029
:101650002102031D2D2B10302002031C6D2BA11B1A
:101660006D2B2408280203185B2BAD012608A90066
:101670002708AA00A71F422BA909AA09A90A03192A
:10168000AA0AAD0A1030AB002730AC008A11092736
:101690003208A5008A152D1C4F2BA509A50A25087F
:1016A000303EA900831323188317220828078400DB
:1016B00029088000A80A2508003C03186D2B10306B
:1016C0002602A9002730031C28302702AA00290877
:1016D000A6002A08A700A5035B2B03302102031DE7
:1016E000732BE8302002031CB42BA11BB42B24085D
:1016F00028020318A22BAE012608A9002708AA0079
:10170000A71F882BA909AA09A90A0319AA0AAE0AC0
:10171000E830AB000330AC008A1109273208AD0075
:101720008A152E1C952BAD09AD0A2D08A500303E5B
:10173000A900831323188317220828078400290887
:101740008000A80A2508003C0318B42BE8302602C4
:10175000A9000330031C04302702AA002908A600B0
:101760002A08A700A503A22B2108803AA9008030EF
:101770002902031DBD2B64302002031CF62B240814
:1017800028020318E92BAE012608A9002708AA00A1
:10179000A71FD02BA909AA09A90A0319AA0AAE0AE8
:1017A0006430AB00AC018A1109273208AD008A15FC
:1017B0002E1CDC2BAD09AD0A2D08A500303EA9007A
:1017C0008313231883172208280784002908800020
:1017D000A80A2508003C0318F62B64302602A9004D
:1017E000031CA7032908A600A503E92B2108803ABA
:1017F000A90080302902031DFF2B0A302002031CA0
:10180000382C2408280203182B2CAE012608A90026
:101810002708AA00A71F122CA909AA09A90A0319B7
:10182000AA0AAE0A0A30AB00AC018A1109273208B5
:10183000AD008A152E1C1E2CAD09AD0A2D08A50081
:10184000303EA90083132318831722082807840039
:1018500029088000A80A2508003C0318382C0A3003
:101860002602A900031CA7032908A600A5032B2C08
:10187000240828020318482C2608303EA9008313A8
:101880002318831722082807840029088000A80A43
:10189000240828020318542C8313231883172208C2
:1018A00028078400003080002808A9000800E30110
:1018B000E401E501E601E701E8018030E9003F309D
:1018C000EA00EF01F001F101F201831361188317BF
:1018D000600884000030840700082D3A031D732C33
:1018E0000130F200F1007108EF0062086F02031886
:1018F000852C83136118831760086F078400000824
:101900002E3A0319852CEF0A752C60088316A00067
:10191000831261088316A10083126F088316A20048
:101920008A113B2727088312EB00831628088312AD
:10193000EC0062086F068A15031DC82C6B0883161D
:10194000A00083126C088316A100A201A3018312D8
:10195000EC1FAD2C8316A203A30383168A11C124A6
:1019600028088312E300831629088312E4008316F3
:101970002A088312E50083162B088312E600630809
:10198000FB006408FC006508FD006608FE00080016
:101990006F0AF1007108EF0062086F020318252D2D
:1019A00083136118831760086F07840030300002CA
:1019B000031C252D83136118831760086F078400AB
:1019C0000008393C031C252D831361188317600818
:1019D00084006F088316A000200884070008A10077
:1019E000831373308400710883126F028407831697
:1019F00021088000831267088316A00083126808FC
:101A00008316A100831269088316A20083126A0854
:101A10008316A3003D30A700CC30A500A600CD3032
:101A2000A4008A111A2332088312E70083163308B0
:101A30008312E800831634088312E9008316350800
:101A40008312EA00EF0A8A15CC2C00308316A1001D
:101A50007330A000710883126F028316A2008A11EE
:101A60003B2727088312ED00831628088312EE0017
:101A70006D088316A00083126E088316A100A201D0
:101A8000A30183128A15EE1F482D8316A203A30318
:101A900083168A11C12428088312E30083162908BB
:101AA0008312E40083162A088312E50083162B08AC
:101AB0008312E60063088316A0008312640883166D
:101AC000A100831265088316A2008312660883169C
:101AD000A300831267088316A40083126808831684
:101AE000A500831269088316A60083126A0883166C
:101AF000A7001A2332088312E300831633088312E7
:101B0000E400831634088312E50083163508831237
:101B1000E6006B088316A00083126C088316A100F0
:101B2000A201A30183128A15EC1F992D8316A2032B
:101B3000A30383168A11C12428088312E7008316A1
:101B400029088312E80083162A088312E900831605
:101B50002B088312EA0063088316A000831264082E
:101B60008316A100831265088316A20083126608FB
:101B70008316A300831267088316A40083126808E3
:101B80008316A500831269088316A60083126A08CB
:101B90008316A700A8013C2530088312E3008316B2
:101BA00031088312E400831632088312E50083169D
:101BB00033088312E600F2088A150319072E8316EC
:101BC000A001A101A201A301831263088316A4004E
:101BD000831264088316A500831265088316A60085
:101BE000831266088316A7000130A8008A113C25DD
:101BF00030088312E300831631088312E400831651
:101C000032088312E500831633088312E600630866
:101C1000FB006408FC006508FD006608FE00080083
:101C2000640862020318162E6208E400E5016408E5
:101C3000650203183A2E6308E800E9018A1190272B
:101C40007308E6007408E700FF30660267088A152B
:101C500003182C2E03192E2EE71F3A2E6608E800D3
:101C60008313611883176008650784006808800083
:101C7000E50A172E6208650203180800831361182D
:101C80008317600865078400003080000800E108C1
:101C9000031D4D2E8030E1004F2EC030E100600862
:101CA0006107F300F4018A11E9270230E200E30141
:101CB00028270800F201F2017108720203180800D7
:101CC000831383120313611883176008720784005B
:101CD00080080319080083136118831760087207CE
:101CE00084000008F3001030F4008A11E927F20A9A
:101CF0008A155C2E0130F300F4018A11E9270230C5
:101D0000E200E30128270230F300F401E927023062
:101D1000E200E301282708002C201E08EE00EF0156
:101D2000EE0DEF0DEE0DEF0DFC30EE0583161E0CE3
:101D3000F000F00CF00E033070058312EE04EF0893
:101D40006E08F0006F08F10008004C201E08EE003D
:101D5000EF01EE0DEF0DEE0DEF0DFC30EE058316ED
:101D60001E0CF000F00CF00E033070058312EE0430
:101D7000EF086E08F0006F08F100080000308312D1
:101D80000313E1003C30E0000430E2003230E300B5
:101D90000430E400102600308316A1003C30A0007F
:101DA0000430A2008A113B2727088312D50083162E
:101DB00028088312D60001305506031956088A15E3
:101DC0000319012F023055060319560803190D2F68
:101DD00003305506031956080319162F043055060B
:101DE000031956080319222F053055060319560802
:101DF00003192B2F06305506031956080319372FE0
:101E00003F2FFE30831608058800FE308312080538
:101E1000E0000130600488003F2FFE308316080583
:101E20008800FE308312080588003F2FFD3083169E
:101E300008058800FD3083120805E00002306004C8
:101E400088003F2FFD30831608058800FD3083127F
:101E5000080588003F2FFB30831608058800FB30FB
:101E600083120805E0000430600488003F2FFB3037
:101E7000831608058800FB308312080588000730A8
:101E80005506031956080319642F0830550603191F
:101E900056080319702F09305506031956080319FF
:101EA000792F0A305506031956080319852F0B3070
:101EB00055060319560803198E2F0C3055060319C1
:101EC000560803199A2FA22FF730831608058800A9
:101ED000F73083120805E000083060048800A22F64
:101EE000F730831608058800F7308312080588004C
:101EF000A22FEF30831608058800EF308312080503
:101F0000E000103060048800A22FEF30831608052F
:101F10008800EF30831208058800A22FDF30831677
:101F200008058800DF3083120805E00020306004D7
:101F30008800A22FDF30831608058800DF30831267
:101F4000080588005508003C56080318031DD61BD9
:101F5000FA2F0D30550256080318B02F0319B22F6F
:101F6000D61FFA2F7A262030E9004130E200E50042
:101F70004430E7004E30E600EA004F30E800EB0066
:101F80005430E3005530E400EC010030E1006230F1
:101F9000E0000A30F1008A155A2683120313E0018B
:101FA0000130E10047262E30ED00EE00EF00443016
:101FB000E2004930E300E800EA004F30E600EC00C0
:101FC0005030E5005330E400E7005430E90056306B
:101FD000EB00F0010030E1006230E0000E30F10073
:101FE0008A155A26013083120313E0008A1140201B
:101FF0008A157A260030E1003C30E0000430E2002F
:102000008A1557247B08B8007C08B9007D08BA00FF
:102010007E08BB003B08003C8A110A16031D1A28E3
:102020003A08003C031D1A283908013C031D1A28F0
:1020300038088F3C031808003B08003C031D2A2881
:102040003A08003C031D2A283908033C031D2A28AE
:102050003808E83C031858288A150A127A262030D6
:10206000E9004130E200E5004430E7004530EB0094
:102070004630EA004E30E6004F30E8005230EC00C7
:102080005430E3005530E4005630ED00EE010030EE
:10209000E1006230E0000C30F1008A155A26013070
:1020A00083120313E0008A1140208A157A26080063
:1020B0008A150A127A262030E9004130E200E50054
:1020C0004430E7004D30EA004E30E6004F30E80083
:1020D000EB005330EC005430E300ED005530E400E9
:1020E000EE010030E1006230E0000C30F1008A15B2
:1020F0005A26013083120313E0008A1140208A150A
:102100007A260800EC010330D80060088316A0008E
:10211000831261088316A100831262088316A2004D
:10212000831263088316A3008A150A126C202B08F9
:102130008312E80083162C088312E90068088316CE
:10214000A000831269088316A100A201A3018312D3
:102150008A110A16E91FAF288316A203A303831668
:102160000A12C1242808F1002908F2002A08F30005
:102170002B08F400A001A101A201A30183126008B1
:102180008316A400831261088316A50083126208D7
:102190008316A600831263088316A7008A153222CD
:1021A000BE088A110A1603190229831260088316D1
:1021B000A000831261088316A100831262088316AF
:1021C000A200831263088316A3007108A40072089A
:1021D000A5007308A6007408A7000130A8000A1221
:1021E0003C2530088312ED00831631088312EE007F
:1021F000831632088312EF00831633088312F0002F
:102200000A163F298312E808031D1329E908031D54
:10221000132983136618831765086C0784002D3013
:1022200080006C0AEC0071088316A0007208A100FF
:102230007308A2007408A300831260088316A40028
:10224000831261088316A500831262088316A60014
:10225000831263088316A7000130A8000A123C25E8
:1022600030088312ED00831631088312EE008316C6
:1022700032088312EF00831633088312F0006808D7
:102280008316A000831269088316A1000030A30002
:102290007530A2000530A4008A150A1210232908FF
:1022A0008312EA00EB016A086B028A110A1603180E
:1022B000762967086C02031874298313753084002B
:1022C0006B088316A000200884070008A100831370
:1022D00083126618831765086C078400831621082B
:1022E000800083126C0AEC00EB0A532967086C0229
:1022F0000318842983136618831765086C07840004
:102300002E3080006C0AEC00EB0164086B020318AD
:10231000252A67086C020318252A6D088316A00079
:1023200083126E088316A10083126F088316A20021
:10233000831270088316A300A401A5012030A60013
:102340004130A7000A121A2332088312ED008316C7
:1023500033088312EE00831634088312EF008316CD
:1023600035088312F0006D088316A00083126E08F2
:102370008316A10083126F088316A20083127008CF
:102380008316A3008A156C202B088312E80083169D
:102390002C088312E90068088316A00083126908DC
:1023A0008316A100A201A30183128A110A16E91F54
:1023B000DC298316A203A30383160A12C12428086A
:1023C000F1002908F2002A08F3002B08F400831218
:1023D0006D088316A00083126E088316A100831275
:1023E0006F088316A200831270088316A300710879
:1023F000A4007208A5007308A6007408A7000130A5
:10240000A8003C2530088312ED00831631088312A2
:10241000EE00831632088312EF008316330883120E
:10242000F0006808303E8316A000831383126618FC
:10243000831765086C0784008316200880008312C8
:102440006C0AEC00EB0A0A16852967086C0203186F
:10245000312A83136618831765086C0784000030DF
:1024600080006C088316A000080083160313061072
:10247000861006118611061286120C308312E200B5
:10248000E3010A1228273330F300F401E927023070
:10249000E200E30128273330F300F401E92702309A
:1024A000E200E30128273230F300F401E92702308B
:1024B000E200E30128272C30F300F401E927023081
:1024C000E200E30128270630F300F401E927023097
:1024D000E200E30128270C30F300F401E927023081
:1024E000E200E30128270130F300F401E92702307C
:1024F000E200E30128270230F300F401E92702306B
:10250000E200E301282708008A150A128C267008C9
:10251000E0007108E100F4308316A0000130A10052
:10252000A201A3018A11C12428088312E6008316A0
:1025300029088312E70083162A088312E80083160D
:102540002B088312E90066088316A000831267082F
:102550008316A100831268088316A20083126908FB
:102560008316A3000A30A400D730A5002330A600AC
:102570003C30A7001A2332088312E6008316330882
:102580008312E700831634088312E80083163508A7
:102590008312E90066088316A00083126708831679
:1025A000A100831268088316A200831269088316AB
:1025B000A3004030A400DA30A5007F30A6003A30F6
:1025C000A7001A2332088312EA0083163308831205
:1025D000EB00831634088312EC008316350883124F
:1025E000ED0060088316A000831261088316A10025
:1025F000A201A30183120A16E11F012B8316A20375
:10260000A30383160A12C12428088312E20083164A
:1026100029088312E30083162A088312E400831634
:102620002B088312E50062088316A000831263085A
:102630008316A100831264088316A2008312650822
:102640008316A30083126A088316A40083126B0802
:102650008316A50083126C088316A60083126D08EA
:102660008316A7001A2332088312E6008316330864
:102670008312E700831634088312E80083163508B6
:102680008312E9006608EE006708EF006808F000B2
:102690006908F10008008A150A12A5267008E000F2
:1026A0007108E100F4308316A0000130A100A201FE
:1026B000A3018A11C12428088312E6008316290881
:1026C0008312E70083162A088312E80083162B087A
:1026D0008312E90066088316A00083126708831638
:1026E000A100831268088316A2008312690883166A
:1026F000A3000A30A400D730A5002330A6003C3048
:10270000A7001A2332088312E600831633088312C7
:10271000E700831634088312E80083163508831215
:10272000E90066088316A000831267088316A100DB
:10273000831268088316A200831269088316A30017
:102740004030A400DA30A5007F30A6003A30A70060
:102750001A2332088312EA00831633088312EB002F
:10276000831634088312EC00831635088312ED00BB
:1027700060088316A000831261088316A100A201DD
:10278000A30183120A16E11FC82B8316A203A30319
:1027900083160A12C12428088312E200831629082E
:1027A0008312E30083162A088312E40083162B08A1
:1027B0008312E50062088316A00083126308831663
:1027C000A100831264088316A20083126508831691
:1027D000A30083126A088316A40083126B08831671
:1027E000A50083126C088316A60083126D08831659
:1027F000A7001A2332088312E600831633088312D7
:10280000E700831634088312E80083163508831224
:10281000E9006608EE006708EF006808F000690844
:10282000F10008000730831603139F00043098005E
:1028300040309900831298019817C03083168100A8
:1028400088018312880135228A157A264130E800F2
:10285000EB004330E2004530E300E6004930EA0097
:102860004A30E7005230E400E9005630E500EC0160
:102870000030E1006230E0000A30F1008A155A268B
:10288000013083120313E0008A1140208A157A2652
:102890000A164B236E08CC006F08CD007008CE00DE
:1028A0007108CF004C088316A00083124D088316D0
:1028B000A10083124E088316A20083124F088316CC
:1028C000A300A401A5014830A6004230A7001A23A6
:1028D00032088312B400831633088312B5008316BE
:1028E00034088312B600831635088312B700340803
:1028F000E0003508E1003608E2003708E300063062
:10290000E4000030E6004030E5000430E7000A163D
:1029100082208312B401B501B601B701E001E101E3
:102920008A150A1247264D30E2004F30E30053303B
:10293000E4005430E5003A30E600E7010030E10001
:102940006230E0000530F1008A155A260530831206
:102950000313E000E10147260030E1004030E000D1
:102960000430F1008A155A26093083120313E0005F
:10297000E10147266F30E2004330E300E40100301C
:10298000E1006230E0000230F1008A155A268A1117
:102990000A1684226E08C8006F08C9007008CA00B1
:1029A0007108CB0048088316A000831249088316DB
:1029B000A10083124A088316A20083124B088316D3
:1029C000A300A401A5014830A6004230A7001A23A5
:1029D00032088312B400831633088312B5008316BD
:1029E00034088312B600831635088312B700340802
:1029F000E0003508E1003608E2003708E300063061
:102A0000E4000030E6004430E5000430E7000A1638
:102A100082208312B401B501B601B701E001013093
:102A2000E1008A150A1247264630E2004530E300ED
:102A30005230E4005630E5003A30E600E70100305D
:102A4000E1006230E0000530F1008A155A260530B9
:102A500083120313E0000130E10047260030E1005B
:102A60004430E0000430F1008A155A260930831200
:102A70000313E0000130E10047266F30E2004330ED
:102A8000E300E4010030E1006230E0000230F100D8
:102A90008A155A26BE260A16482CD53083120313EF
:102AA000A000C430A100BB30A200DC30A300A40110
:102AB000A501A601A701A801A901AA01AB01AC01CA
:102AC000AD01AE01AF01DA01DB01D301D401DC01BC
:102AD000DD01DE01DF01B001B101B201B301D801B6
:102AE000D901D7018A110A16122C83120313520E30
:102AF0008400510E8A00500E8300FF0E7F0E0900E5
:02400E003A3F37
:00000001FF
